:100000000C9434000C943E000C943E000C943E0082
:100010000C943E000C943E000C943E000C943E0068
:100020000C943E000C943E000C943E000C943E0058
:100030000C943E000C943E000C943E000C943E0048
:100040000C943E000C943E000C943E000C943E0038
:100050000C943E000C943E000C943E000C943E0028
:100060000C943E000C943E0011241FBECFEFD8E04C
:10007000DEBFCDBF0E9440000C9474000C940000C1
:100080008CE38AB9259A80EC8BB950E030E080E0AF
:1000900040E061E01DC0311125C0442309F1952FD6
:1000A0009627292F2295220F207E89B182FB442793
:1000B00040F989B183FB882780F999B194FB3327F4
:1000C00030F999B195FB552750F995B1922B95B917
:1000D0008111E1CF411102C0332311F020E0E5CFBF
:0C00E0005523E1F320E2E1CFF894FFCFBC
:00000001FF
