:020000020000FC
:1000000003EC0AB900E204B91FEF1BB919B124E0EF
:10001000312F322342E022D058E0612F652373E074
:1000200021D080E1912F9823A4E01FD0B0E2C12F0E
:10003000CB23D5E01ED0532E5094692E60947C2E95
:100040007094162E1922232E2622272056205C2259
:1000500012281528E5E011D015B8D6CF36954A9567
:10006000E9F7089566957A95E9F79695AA95E9F7DF
:100070000895C695DA95E9F70895110CEA95E9F720
:020080000895E1
:00000001FF
